:020000040800F2
:100000000028002049140008D9130008DF13000855
:10001000E5130008EB130008F113000800000000CE
:10002000000000000000000000000000F7130008BE
:1000300003140008000000000F1400081B1400083F
:1000400091140008911400089114000891140008FC
:1000500091140008911400089114000891140008EC
:1000600091140008911400089114000891140008DC
:1000700091140008911400089114000891140008CC
:1000800091140008911400089114000891140008BC
:1000900091140008911400089114000891140008AC
:1000A000911400089114000891140008911400089C
:1000B00029140008911400080000000091140008A1
:1000C00091140008000000000000000091140008D6
:1000D00000000000911400089114000800000000C6
:1000E0009114000891140008911400080000000009
:1000F0000000000000000000000000000000000000
:0C01000000000000000000005FF808F1A3
:10010C0010B5054C237833B9044B13B10448AFF345
:10011C0000800123237010BD50010020000000005E
:10012C00C02A000808B5034B1BB103490348AFF3C1
:10013C00008008BD0000000054010020C02A000807
:10014C0080B582B000AF78607B68002B6BDB7B687E
:10015C00092B68DC36497A681346DB009B1A9B0036
:10016C000B441B68DBB21A460121324801F08DFCAE
:10017C002F497A681346DB009B1A9B000B4404330F
:10018C001B68DBB21A4602212A4801F07EFC284982
:10019C007A681346DB009B1A9B000B4408331B68E0
:1001AC00DBB21A460421234801F06FFC20497A681F
:1001BC001346DB009B1A9B000B440C331B68DBB211
:1001CC001A4608211B4801F060FC19497A6813464D
:1001DC00DB009B1A9B000B4410331B68DBB21A46E6
:1001EC001021144801F051FC11497A681346DB00C8
:1001FC009B1A9B000B4414331B68DBB21A4620215C
:10020C000C4801F042FC0A497A681346DB009B1A41
:10021C009B000B4418331B68DBB21A46402105487F
:10022C0001F033FC00E000BF0837BD4680BD00BFC5
:10023C0000000020000C014080B582B000AF786057
:10024C007B68002B71DB7B68092B6EDC39497A6883
:10025C001346DB009B1A9B000B441B68DBB21A464F
:10026C008021354801F011FC32497A681346DB00D5
:10027C009B1A9B000B4404331B68DBB21A464FF4E9
:10028C0080712D4801F001FC2A497A681346DB0085
:10029C009B1A9B000B4408331B68DBB21A464FF4C5
:1002AC000071254801F0F1FB22497A681346DB0006
:1002BC009B1A9B000B440C331B68DBB21A464FF4A1
:1002CC0080611D4801F0E1FB1A497A681346DB0096
:1002DC009B1A9B000B4410331B68DBB21A464FF47D
:1002EC000061154801F0D1FB12497A681346DB0016
:1002FC009B1A9B000B4414331B68DBB21A464FF459
:10030C0080510D4801F0C1FB0A497A681346DB00A5
:10031C009B1A9B000B4418331B68DBB21A464FF434
:10032C000051054801F0B1FB00E000BF0837BD46A5
:10033C0080BD00BF00000020000C014080B582B0E1
:10034C0000AF786039607B68002B03D07B68012B91
:10035C0010D01FE03868FFF7F3FE00224FF48071D5
:10036C000E4801F092FB01224FF400710B4801F092
:10037C008CFB0FE03868FFF7E3FE01224FF480712D
:10038C00064801F082FB00224FF40071034801F093
:10039C007CFB00BF00BF0837BD4680BD0008014094
:1003AC0080B582B000AF786039607B68022B03D0D7
:1003BC007B68032B10D01FE03868FFF73DFF00224D
:1003CC004FF480610E4801F060FB01224FF4006194
:1003DC000B4801F05AFB0FE03868FFF72DFF0122A4
:1003EC004FF48061064801F050FB00224FF400618D
:1003FC00034801F04AFB00BF00BF0837BD4680BD73
:10040C000008014080B483B000AF7860044A7B6878
:10041C00012142F8231000BF0C37BD4680BC704749
:10042C00C401002080B483B000AF7860094A7B68B7
:10043C0052F82330012B06D1064A7B68002142F882
:10044C002310012300E0002318460C37BD4680BC66
:10045C00704700BFC401002080B582B000AF0023FC
:10046C007B607EE0434A7B6852F8232042497B68DC
:10047C0041F82320414A7B6852F823203D497B6890
:10048C0041F823203E4A7B6852F823203D497B6883
:10049C0031F813301946104601F0E0FA03461946BC
:1004AC00364A7B6842F82310344A7B6852F8232082
:1004BC0030497B6851F823309A424FD12D4A7B68E2
:1004CC0052F823202C497B6851F823309A4245D1AD
:1004DC002D4A7B6852F8232027497B6851F823303A
:1004EC009A4216D0244A7B6852F8232026497B680E
:1004FC0041F82320244A7B6852F82330002B2DD15D
:10050C00224A7B68C82142F823107868FFF77AFFEB
:10051C0024E01D4A7B6852F82330002B1ED11B4A65
:10052C007B6852F82330002B18DD184A7B6852F890
:10053C0023305A1E15497B6841F82320134A7B68E7
:10054C0052F82330002B09D1114A7B68012142F863
:10055C0023100E4A7B68C82142F823107B680133B4
:10056C007B607B68022B7FF77DAF00BF00BF083735
:10057C00BD4680BDAC010020D0010020A0010020B0
:10058C00180100202401002094010020B801002053
:10059C00DC01002080B500AF944B1B680D2B5DD0A7
:1005AC000D2B00F386800B2B02D00C2B2BD080E074
:1005BC00002202218E4801F068FA012204218C48A5
:1005CC0001F063FA01220821894801F05EFA894B97
:1005DC001B68894A1360002000F05EFE0346012B65
:1005EC0069D1824B0D221A60844B1B684FF47A72CE
:1005FC0002FB03F31946002000F026FE7F4B1B681C
:10060C007C4A136057E001220221794801F03DFA3F
:10061C0000220421764801F038FA0122082174489E
:10062C0001F033FA734B1B68734A1360002000F01F
:10063C0033FE0346012B40D16C4B0B221A60704BDE
:10064C001B684FF47A7202FB03F31946002000F08A
:10065C00FBFD6B4B1B68674A13602EE001220221E5
:10066C00634801F012FA01220421614801F00DFAED
:10067C00002208215E4801F008FA5E4B1B685E4AB6
:10068C001360002000F008FE0346012B17D1574BD6
:10069C000C221A605B4B1B684FF47A7202FB03F35B
:1006AC001946002000F0D0FD564B1B68514A1360D0
:1006BC0005E000BF04E000BF02E000BF00E000BFA7
:1006CC00514B1B680D2B5DD00D2B00F386800B2B33
:1006DC0002D00C2B2BD080E000221021444801F0DA
:1006EC00D4F901224021424801F0CFF901228021A6
:1006FC003F4801F0CAF9454B1B683F4A5360012043
:10070C0000F0CAFD0346012B69D13F4B0D221A6044
:10071C003A4B1B684FF47A7202FB03F31946012023
:10072C0000F092FD354B1B68384A136057E00122EC
:10073C0010212F4801F0A9F9002240212C4801F08A
:10074C00A4F9012280212A4801F09FF92F4B1B6844
:10075C00294A5360012000F09FFD0346012B40D134
:10076C00294B0B221A60264B1B684FF47A7202FB42
:10077C0003F31946012000F067FD214B1B68234A47
:10078C0013602EE001221021194801F07EF901229C
:10079C004021174801F079F900228021144801F01A
:1007AC0074F91A4B1B68144A5360012000F074FD55
:1007BC000346012B17D1144B0C221A60114B1B68EA
:1007CC004FF47A7202FB03F31946012000F03CFD52
:1007DC000C4B1B680D4A136005E000BF04E000BF22
:1007EC0002E000BF00E000BF00BF80BD2C01002074
:1007FC000008014078010020E80100203C010020A5
:10080C003401002038010020300100207C01002040
:10081C0080B500AF022000F03FFD0346012B71D1E3
:10082C00FA21022000F010FD374B1B680133364AC9
:10083C001360354B1B68032B0CDD334B00221A6005
:10084C00324B1B68013B314A1360314B1B68013B37
:10085C002F4A13602F4B1B682F4A82FB03129210F6
:10086C00DB17D31A2D4A13602A4B19682A4B83FBCA
:10087C0001239A10CB17D21A13469B0013445B002A
:10088C00CA1A264B5A60234B5B68234A82FB03121D
:10089C009210DB17D31A214A93601E4B59681E4BDA
:1008AC0083FB01239A10CB17D21A13469B001344D7
:1008BC005B00CA1A194BDA60194B1A68184B1B6883
:1008CC00164951F8233019461046FFF737FD144BE3
:1008DC001B680133002B03F00103B8BF5B42104AC5
:1008EC001360104B1A680F4B1B680C4951F82330DE
:1008FC0019461046FFF754FD0A4B1B68C3F105035C
:10090C00084A136000BF80BD6C01002078010020F4
:10091C007C010020E80100206766666684010020E7
:10092C00800100204001002080B500AFAC4B1B685B
:10093C00042B00F23B8301A252F823F05D0900085E
:10094C00A5090008230A00081D0C00080D0E00085C
:10095C00A34B01221A60A34B1B684FF47A7202FB63
:10096C0003F31946002000F06FFC9F4B1B684FF4FB
:10097C007A7202FB03F31946012000F065FC0A2190
:10098C00022000F061FC974B1B68984A1360964B51
:10099C001B68974A136012E3FFF7FCFDFFF738FF63
:1009AC000020FFF73FFD0346002B00F001838C4B2A
:1009BC0002221A600A21022000F046FCFA210320D0
:1009CC0000F042FC0122DE218A4801F05EF8854BE2
:1009DC001B68894A1360884B1B68884A82FB031288
:1009EC009210DB17D31A864A1360834B1968834B1A
:1009FC0083FB01239A10CB17D21A13469B00134486
:100A0C005B00CA1A7E4B5A607D4B00229A607C4B6D
:100A1C000222DA60CCE2032000F03EFC0346012BFC
:100A2C000BD1FA21032000F00FFC0221714801F0D8
:100A3C0044F810216F4801F040F80120FFF7F2FC58
:100A4C000346002B24D06C4B1B6801336A4A13609D
:100A5C00694B1B68632B02DD674B00221A60664BE7
:100A6C001B68664A82FB03129210DB17D31A644A86
:100A7C001360614B1968614B83FB01239A10CB17F0
:100A8C00D21A13469B0013445B00CA1A5C4B5A6083
:100A9C00022000F001FC0346002B29D0FA21022091
:100AAC0000F0D2FB574B1A68564B1B68544951F84F
:100ABC00233019461046FFF741FC524B1B6801339B
:100ACC00002B03F00103B8BF5B424E4A13604E4B40
:100ADC001A684D4B1B684A4951F823301946104689
:100AEC00FFF75EFC484B1B68C3F10503464A1360D5
:100AFC000220FFF797FC0346002B36D03E4B1B68B9
:100B0C00384A1360364B03221A600A21022000F087
:100B1C009BFBFA21032000F097FB0122DE213548D4
:100B2C0000F0B3FF394B1B68334A1360324B1B6820
:100B3C00324A82FB03129210DB17D31A304A13602D
:100B4C002D4B19682D4B83FB01239A10CB17D21A0E
:100B5C0013469B0013445B00CA1A294B5A60284B5E
:100B6C0000229A60264B0322DA600020FFF75AFC21
:100B7C000346002B00F01E82194B03221A600A2137
:100B8C00022000F061FBFA21032000F05DFB012242
:100B9C00DE21184800F079FF1C4B1B68164A1360C5
:100BAC00154B1B68154A82FB03129210DB17D31AE4
:100BBC00134A1360104B1968104B83FB01239A10D6
:100BCC00CB17D21A13469B0013445B00CA1A0C4B6A
:100BDC005A600B4B00229A60094B0322DA60E9E160
:100BEC0074010020340100203C0100207801002019
:100BFC007C010020000801407001002067666666D9
:100C0C0084010020800100204001002038010020D8
:100C1C00032000F041FB0346012B0BD1FA210320EA
:100C2C0000F012FB04216D4800F047FF40216B4897
:100C3C0000F043FF0120FFF7F5FB0346002B24D007
:100C4C00674B1B680133664A1360654B1B68632B4B
:100C5C0002DD634B00221A60614B1B68614A82FB08
:100C6C0003129210DB17D31A5F4A13605C4B19689E
:100C7C005C4B83FB01239A10CB17D21A13469B00B3
:100C8C0013445B00CA1A584B5A60022000F004FB54
:100C9C000346002B29D0FA21022000F0D5FA534B41
:100CAC001A68524B1B68504951F8233019461046AC
:100CBC00FFF744FB4D4B1B680133002B03F0010382
:100CCC00B8BF5B42494A1360494B1A68484B1B68D2
:100CDC00454951F8233019461046FFF761FB444B48
:100CEC001B68C3F10503424A13600220FFF79AFB0D
:100CFC000346002B36D03A4B1B683E4A13603E4BE2
:100D0C0004221A600A21022000F09EFAFA21032024
:100D1C0000F09AFA0122DE21304800F0B6FE374B83
:100D2C001B682F4A13602E4B1B682E4A82FB031242
:100D3C009210DB17D31A2C4A1360294B1968294BD4
:100D4C0083FB01239A10CB17D21A13469B00134432
:100D5C005B00CA1A244B5A60234B00229A60224B28
:100D6C000422DA600020FFF75DFB0346002B00F045
:100D7C002381214B04221A600A21022000F064FA1C
:100D8C00FA21032000F060FA0122DE21134800F062
:100D9C007CFE1A4B1B68124A1360114B1B68114ADC
:100DAC0082FB03129210DB17D31A0F4A13600C4B01
:100DBC0019680C4B83FB01239A10CB17D21A1346DC
:100DCC009B0013445B00CA1A074B5A60064B002267
:100DDC009A60054B0422DA60EEE000BF0008014087
:100DEC007001002067666666840100208001002087
:100DFC004001002038010020740100203C0100203B
:100E0C00032000F049FA0346012B0BD1FA210320F1
:100E1C0000F01AFA08216B4800F04FFE8021694857
:100E2C0000F04BFE0120FFF7FDFA0346002B24D007
:100E3C00654B1B680133644A1360634B1B68632B5F
:100E4C0002DD614B00221A605F4B1B685F4A82FB1C
:100E5C0003129210DB17D31A5D4A13605A4B1968B0
:100E6C005A4B83FB01239A10CB17D21A13469B00C3
:100E7C0013445B00CA1A564B5A60022000F00CFA5D
:100E8C000346002B29D0FA21022000F0DDF9514B4A
:100E9C001A68504B1B684E4951F8233019461046BE
:100EAC00FFF74CFA4B4B1B680133002B03F001038B
:100EBC00B8BF5B42474A1360474B1A68464B1B68E6
:100ECC00434951F8233019461046FFF769FA424B53
:100EDC001B68C3F10503404A13600220FFF7A2FA16
:100EEC000346002B2FD0384B1B683C4A13603C4BFD
:100EFC0001221A603B4B1B684FF47A7202FB03F31E
:100F0C001946002000F0A0F9344B1B684FF47A729C
:100F1C0002FB03F31946012000F096F90A21022086
:100F2C0000F092F92F4B1B682F4A13602B4B1B6858
:100F3C002E4A13602E4B00221A602E4B0B221A6085
:100F4C002D4B0D221A600020FFF76CFA0346002B84
:100F5C0034D0234B01221A60224B1B684FF47A7257
:100F6C0002FB03F31946002000F06EF91B4B1B68C3
:100F7C004FF47A7202FB03F31946012000F064F976
:100F8C000A21022000F060F9164B1B68164A136008
:100F9C00124B1B68154A1360154B00221A60154B37
:100FAC000B221A60144B0D221A6007E000BF06E0FA
:100FBC0000BF04E000BF02E000BF00E000BF00BFC4
:100FCC0080BD00BF000801407001002067666666A6
:100FDC008401002080010020400100203C01002001
:100FEC007401002034010020780100207C010020D5
:100FFC006C0100202C0100203001002080B500AFD6
:10100C0000F042FA00F022F800F0A8F800F05AF8CC
:10101C000C4801F097F90D21042000F015F9FFF7A9
:10102C0083FC042000F038F90346002BF7D04FF472
:10103C00FA71042000F008F92021034800F03DFD6E
:10104C00EDE700BFF00100200008014080B590B032
:10105C0000AF07F1180328220021184601F022FDE9
:10106C003B1D00221A605A609A60DA601A610223F2
:10107C00BB610123BB621023FB6200237B6307F17E
:10108C001803184600F032FD0346002B01D000F087
:10109C00D5F80F237B600023BB600023FB6000238B
:1010AC003B6100237B613B1D0021184600F09EFF35
:1010BC000346002B01D000F0C1F800BF4037BD46FD
:1010CC0080BD000080B586B000AF07F10803002298
:1010DC001A605A609A60DA603B4600221A605A60C5
:1010EC001D4B4FF080421A601B4B41F63F725A6009
:1010FC00194B00229A60184B0922DA60164B002219
:10110C001A61154B00229A61134801F0CBF8034683
:10111C00002B01D000F092F84FF48053BB6007F124
:10112C00080319460C4801F049FA0346002B01D07C
:10113C0000F084F800233B6000237B603B4619469B
:10114C00054801F021FC0346002B01D000F076F895
:10115C0000BF1837BD4680BDF001002080B586B0B9
:10116C0000AF07F1080300221A605A609A60DA6037
:10117C00294B9B69284A43F004039361264B9B69D6
:10118C0003F004037B607B68234B9B69224A43F08A
:10119C0008039361204B9B6903F008033B603B6899
:1011AC00002240F6FE711D4800F06FFC002243F651
:1011BC00FF711B4800F069FC40F6FE73BB60012315
:1011CC00FB6000233B6102237B6107F10803194696
:1011DC00124800F0C9FA43F6FF73BB600123FB60B1
:1011EC0000233B6102237B6107F1080319460C487D
:1011FC0000F0BAFA4FF4E043BB600023FB6001231C
:10120C003B6107F108031946044800F0ADFA00BF32
:10121C001837BD4680BD00BF0010024000080140D9
:10122C00000C014080B582B000AF786000F048F847
:10123C00FFF712F900BF0837BD4680BD80B400AF80
:10124C0072B600BFFEE7000080B483B000AF7860D8
:10125C0039607B68002B13DB7B68132B10DC3B683D
:10126C000A4A82FB03129210DB17D21A08497B68D8
:10127C0041F82320074A7B68002142F8231000E044
:10128C0000BF0C37BD4680BC704700BF6766666602
:10129C00380200208802002080B483B000AF786050
:1012AC00064A7B6852F82330012B01D1012300E060
:1012BC00002318460C37BD4680BC704788020020BE
:1012CC0080B483B000AF00237B601CE0124A7B68C3
:1012DC0052F82330002B13DD0F4A7B6852F8233071
:1012EC005A1E0D497B6841F823200B4A7B6852F843
:1012FC002330002B04DC094A7B68012142F82310BF
:10130C007B6801337B607B68132BDFDD00BF00BF84
:10131C000C37BD4680BC7047380200208802002084
:10132C0080B485B000AF154B9B69144A43F00103A0
:10133C009361124B9B6903F00103BB60BB680F4BBD
:10134C00DB690E4A43F08053D3610C4BDB6903F02D
:10135C0080537B607B680A4B5B68FB60FB6823F007
:10136C00E063FB60FB6843F08063FB60044AFB684E
:10137C00536000BF1437BD4680BC7047001002405C
:10138C000000014080B584B000AF78607B681B68BA
:10139C00B3F1804F13D10C4BDB690B4A43F00103C3
:1013AC00D361094BDB6903F00103FB60FB6800228E
:1013BC0000211C2000F0A1F91C2000F0BAF900BF9C
:1013CC001037BD4680BD00BF0010024080B400AF96
:1013DC00FEE780B400AFFEE780B400AFFEE780B458
:1013EC0000AFFEE780B400AFFEE780B400AF00BFF3
:1013FC00BD4680BC704780B400AF00BFBD4680BC0A
:10140C00704780B400AF00BFBD4680BC704780B54C
:10141C0000AF00F07FF800BF80BD000080B500AFCA
:10142C00024800F0DBFF00BF80BD00BFF0010020D0
:10143C0080B400AF00BFBD4680BC7047FFF7F8FF1B
:10144C000B480C490C4A002302E0D458C450043316
:10145C00C4188C42F9D3094A094C002301E01360EB
:10146C000432A242FBD301F0F9FAFFF7C7FD704733
:10147C000000002050010020042B00085001002027
:10148C00DC020020FEE7000080B500AF084B1B68B3
:10149C00074A43F010031360032000F023F90F20D8
:1014AC0000F008F8FFF73CFF0023184680BD00BF92
:1014BC000020024080B582B000AF7860124B1A68F1
:1014CC00124B1B7819464FF47A73B3FBF1F3B2FB52
:1014DC00F3F3184600F03BF90346002B01D001232F
:1014EC000EE07B680F2B0AD8002279684FF0FF3092
:1014FC0000F003F9064A7B681360002300E0012327
:10150C0018460837BD4680BD440100204C01002020
:10151C004801002080B400AF054B1B781A46054BE0
:10152C001B681344034A136000BFBD4680BC704760
:10153C004C010020D802002080B400AF024B1B6885
:10154C001846BD4680BC7047D802002080B485B0D8
:10155C0000AF78607B6803F00703FB600C4BDB6823
:10156C00BB60BA684FF6FF031340BB60FB681A02FE
:10157C00BB68134343F0BF6343F40033BB60044ABE
:10158C00BB68D36000BF1437BD4680BC704700BF3A
:10159C0000ED00E080B400AF044BDB681B0A03F0E5
:1015AC0007031846BD4680BC704700BF00ED00E045
:1015BC0080B483B000AF0346FB7197F90730002B62
:1015CC000BDBFB7903F01F02064997F907305B0927
:1015DC00012000FA02F241F8232000BF0C37BD466F
:1015EC0080BC704700E100E080B483B000AF0346DC
:1015FC003960FB7197F90730002B0ADB3B68DAB2D4
:10160C000C4997F907301201D2B20B4483F800232E
:10161C000AE03B68DAB20849FB7903F00F03043B9C
:10162C001201D2B20B441A7600BF0C37BD4680BCF7
:10163C00704700BF00E100E000ED00E080B489B02D
:10164C0000AFF860B9607A60FB6803F00703FB61D8
:10165C00FB69C3F10703042B28BF0423BB61FB699F
:10166C000433062B02D9FB69033B00E000237B61AA
:10167C004FF0FF32BB6902FA03F3DA43BB681A403E
:10168C007B699A404FF0FF317B6901FA03F3D94330
:10169C007B680B40134318462437BD4680BC70470B
:1016AC0080B582B000AF78607B68013BB3F1807F7E
:1016BC0001D301230FE00A4A7B68013B53600F21E1
:1016CC004FF0FF30FFF790FF054B00229A60044B60
:1016DC0007221A60002318460837BD4680BD00BF9C
:1016EC0010E000E080B582B000AF78607868FFF75A
:1016FC002DFF00BF0837BD4680BD80B586B000AF5A
:10170C000346B9607A60FB7300237B61FFF742FFED
:10171C0078617A68B9687869FFF790FF024697F9A3
:10172C000F3011461846FFF75FFF00BF1837BD4654
:10173C0080BD80B582B000AF0346FB7197F90730CE
:10174C001846FFF735FF00BF0837BD4680BD80B592
:10175C0082B000AF78607868FFF7A2FF03461846A6
:10176C000837BD4680BD000080B48BB000AF7860F8
:10177C00396000237B6200233B6248E101227B6AD3
:10178C0002FA03F3FB613B681B68FA691340BB6107
:10179C00BA69FB699A4240F037813B685B68A34A9F
:1017AC0093425ED0A14A934275D8A14A934258D035
:1017BC009F4A93426FD89F4A934252D09D4A93427C
:1017CC0069D89D4A93424CD09B4A934263D89B4A1A
:1017DC00934246D0994A93425DD8122B2AD8122BA9
:1017EC0059D801A252F823F06F18000849180008C4
:1017FC005B1800089D180008A3180008A31800081F
:10180C00A3180008A3180008A3180008A3180008C0
:10181C00A3180008A3180008A3180008A3180008B0
:10182C00A3180008A3180008A318000851180008F2
:10183C0065180008824A934213D02CE03B68DB68A1
:10184C003B6229E03B68DB6804333B6224E03B6885
:10185C00DB6808333B621FE03B68DB680C333B62A0
:10186C001AE03B689B68002B02D104233B6213E017
:10187C003B689B68012B05D108233B627B68FA69A6
:10188C001A6109E008233B627B68FA695A6103E03C
:10189C0000233B6200E000BFBB69FF2B01D87B68D3
:1018AC0001E07B6804337B61BB69FF2B02D87B6A48
:1018BC009B0002E07B6A083B9B003B617B691A68DA
:1018CC000F213B6901FA03F3DB431A40396A3B6988
:1018DC0001FA03F31A437B691A603B685B6803F0F7
:1018EC008053002B00F09080564B9B69554A43F077
:1018FC0001039361534B9B6903F00103BB60BB680D
:10190C00514A7B6A9B08023352F82330FB607B6A96
:10191C0003F003039B000F2202FA03F3DB43FA6884
:10192C001340FB607B68494A93420DD07B68484A60
:10193C00934207D07B68474A934201D1022304E0CB
:10194C00032302E0012300E000237A6A02F0030281
:10195C0092009340FA681343FB603B497B6A9B08F7
:10196C000233FA6841F823203B685B6803F4801368
:10197C00002B06D0384B9A683749BB6913438B60F0
:10198C0006E0354B9A68BB69DB43334913408B60E7
:10199C003B685B6803F40013002B06D02E4BDA680F
:1019AC002D49BB691343CB6006E02B4BDA68BB694E
:1019BC00DB4329491340CB603B685B6803F400337D
:1019CC00002B06D0244B5A682349BB6913434B6048
:1019DC0006E0214B5A68BB69DB431F4913404B603F
:1019EC003B685B6803F48033002B06D01A4B1A68F3
:1019FC001949BB6913430B6006E0174B1A68BB69A6
:101A0C00DB43154913400B607B6A01337B623B68F7
:101A1C001A687B6A22FA03F3002B7FF4AFAE00BF87
:101A2C0000BF2C37BD4680BC704700BF0000321091
:101A3C0000003110000022100000211000001210D4
:101A4C00000011100010024000000140000801408D
:101A5C00000C0140001001400004014080B485B02E
:101A6C0000AF78600B467B807B689A687B8813405C
:101A7C00002B02D00123FB7301E00023FB73FB7BE3
:101A8C0018461437BD4680BC704780B483B000AF95
:101A9C0078600B467B8013467B707B78002B03D0E1
:101AAC007A887B681A6103E07B881A047B681A6168
:101ABC0000BF0C37BD4680BC704780B485B000AF0A
:101ACC0078600B467B807B68DB68FB607A88FB6800
:101ADC0013401A04FB68D9437B880B401A437B687C
:101AEC001A6100BF1437BD4680BC704780B586B004
:101AFC0000AF78607B68002B01D101236CE27B681E
:101B0C001B6803F00103002B00F08780924B5B688D
:101B1C0003F00C03042B0CD08F4B5B6803F00C030D
:101B2C00082B12D18C4B5B6803F48033B3F5803FE8
:101B3C000BD1894B1B6803F40033002B6CD07B68F2
:101B4C005B68002B68D1012346E27B685B68B3F5C8
:101B5C00803F06D1804B1B687F4A43F4803313606F
:101B6C002EE07B685B68002B0CD17B4B1B687A4AA0
:101B7C0023F480331360784B1B68774A23F480235B
:101B8C0013601DE07B685B68B3F5A02F0CD1724B22
:101B9C001B68714A43F4802313606F4B1B686E4AB9
:101BAC0043F4803313600BE06B4B1B686A4A23F4DD
:101BBC0080331360684B1B68674A23F480231360DF
:101BCC007B685B68002B13D0FFF7B6FC386108E02C
:101BDC00FFF7B2FC02463B69D31A642B01D90323ED
:101BEC00FAE15D4B1B6803F40033002BF0D014E0DA
:101BFC00FFF7A2FC386108E0FFF79EFC02463B6948
:101C0C00D31A642B01D90323E6E1534B1B6803F46D
:101C1C000033002BF0D100E000BF7B681B6803F0A1
:101C2C000203002B63D04C4B5B6803F00C03002BBE
:101C3C000BD0494B5B6803F00C03082B1CD1464BB3
:101C4C005B6803F48033002B16D1434B1B6803F005
:101C5C000203002B05D07B681B69012B01D00123EB
:101C6C00BAE13D4B1B6823F0F8027B685B69DB0033
:101C7C00394913430B603AE07B681B69002B20D079
:101C8C00364B01221A60FFF757FC386108E0FFF76A
:101C9C0053FC02463B69D31A022B01D903239BE167
:101CAC002D4B1B6803F00203002BF0D02A4B1B6852
:101CBC0023F0F8027B685B69DB00274913430B6058
:101CCC0015E0264B00221A60FFF736FC386108E05D
:101CDC00FFF732FC02463B69D31A022B01D90323CE
:101CEC007AE11D4B1B6803F00203002BF0D17B68DB
:101CFC001B6803F00803002B3AD07B689B69002B10
:101D0C0019D0174B01221A60FFF716FC386108E056
:101D1C00FFF712FC02463B69D31A022B01D90323AD
:101D2C005AE10D4B5B6A03F00203002BF0D001204B
:101D3C0000F09AFA1CE00A4B00221A60FFF7FCFB39
:101D4C0038610FE0FFF7F8FB02463B69D31A022B10
:101D5C0008D9032340E100BF0010024000004242BA
:101D6C00800442429E4B5B6A03F00203002BE9D1D4
:101D7C007B681B6803F00403002B00F0A680002393
:101D8C00FB75974BDB6903F08053002B0DD1944B03
:101D9C00DB69934A43F08053D361914BDB6903F0C9
:101DAC008053BB60BB680123FB758E4B1B6803F42F
:101DBC008073002B18D18B4B1B688A4A43F48073B9
:101DCC001360FFF7B9FB386108E0FFF7B5FB02467B
:101DDC003B69D31A642B01D90323FDE0814B1B68AB
:101DEC0003F48073002BF0D07B68DB68012B06D1E9
:101DFC007B4B1B6A7A4A43F0010313622DE07B682C
:101E0C00DB68002B0CD1764B1B6A754A23F001035F
:101E1C001362734B1B6A724A23F0040313621CE0B7
:101E2C007B68DB68052B0CD16D4B1B6A6C4A43F04D
:101E3C00040313626A4B1B6A694A43F00103136281
:101E4C000BE0674B1B6A664A23F001031362644B79
:101E5C001B6A634A23F0040313627B68DB68002B64
:101E6C0015D0FFF769FB38610AE0FFF765FB024606
:101E7C003B69D31A41F28832934201D90323ABE078
:101E8C00574B1B6A03F00203002BEED014E0FFF754
:101E9C0053FB38610AE0FFF74FFB02463B69D31A4C
:101EAC0041F28832934201D9032395E04C4B1B6AD3
:101EBC0003F00203002BEED1FB7D012B05D1484B27
:101ECC00DB69474A23F08053D3617B68DB69002BC5
:101EDC0000F08180424B5B6803F00C03082B61D04F
:101EEC007B68DB69022B46D13F4B00221A60FFF75F
:101EFC0023FB386108E0FFF71FFB02463B69D31A4E
:101F0C00022B01D9032367E0354B1B6803F00073E8
:101F1C00002BF0D17B681B6AB3F5803F08D1304BA6
:101F2C005B6823F400327B689B682D4913434B603C
:101F3C002B4B5B6823F474127B68196A7B685B6AB1
:101F4C000B43274913434B60274B01221A60FFF7C1
:101F5C00F3FA386108E0FFF7EFFA02463B69D31A4F
:101F6C00022B01D9032337E01D4B1B6803F00073D0
:101F7C00002BF0D02FE01C4B00221A60FFF7DCFA8C
:101F8C00386108E0FFF7D8FA02463B69D31A022BF6
:101F9C0001D9032320E0124B1B6803F00073002BC4
:101FAC00F0D118E07B68DB69012B01D1012313E030
:101FBC000B4B5B68FB60FB6803F480327B681B6A2D
:101FCC009A4206D1FB6803F470127B685B6A9A42F2
:101FDC0001D0012300E0002318461837BD4680BD10
:101FEC0000100240007000406000424280B584B096
:101FFC0000AF786039607B68002B01D10123D0E001
:10200C006A4B1B6803F007033A689A4210D9674B76
:10201C001B6823F0070265493B6813430B60634B55
:10202C001B6803F007033A689A4201D00123B8E019
:10203C007B681B6803F00203002B20D07B681B68B5
:10204C0003F00403002B05D0594B5B68584A43F44A
:10205C00E06353607B681B6803F00803002B05D01A
:10206C00534B5B68524A43F460535360504B5B686C
:10207C0023F0F0027B689B684D4913434B607B68EF
:10208C001B6803F00103002B40D07B685B68012BBD
:10209C0007D1474B1B6803F40033002B15D10123E8
:1020AC007FE07B685B68022B07D1414B1B6803F018
:1020BC000073002B09D1012373E03D4B1B6803F027
:1020CC000203002B01D101236BE0394B5B6823F039
:1020DC0003027B685B68364913434B60FFF72CFAAD
:1020EC00F8600AE0FFF728FA0246FB68D31A41F2BF
:1020FC008832934201D9032353E02D4B5B6803F0E4
:10210C000C027B685B689B009A42EBD1274B1B68E7
:10211C0003F007033A689A4210D2244B1B6823F051
:10212C00070222493B6813430B60204B1B6803F0EA
:10213C0007033A689A4201D0012332E07B681B689E
:10214C0003F00403002B08D0194B5B6823F4E06206
:10215C007B68DB68164913434B607B681B6803F094
:10216C000803002B09D0124B5B6823F460527B6888
:10217C001B69DB000E4913434B6000F021F802464B
:10218C000B4B5B681B0903F00F030A49CB5C22FA6B
:10219C0003F3094A1360094B1B681846FFF78AF9C9
:1021AC00002318461037BD4680BD00BF00200240FA
:1021BC0000100240D82A00084401002048010020E9
:1021CC0080B487B000AF0023FB600023BB6000230A
:1021DC007B6100237B6000233B611E4B5B68FB60D3
:1021EC00FB6803F00C03042B02D0082B03D027E070
:1021FC00194B3B6127E0FB689B0C03F00F03174A5C
:10220C00D35C7B60FB6803F48033002B10D0114B44
:10221C005B685B0C03F00103114AD35CBB607B6809
:10222C000D4A02FB03F2BB68B2FBF3F37B6104E0E3
:10223C007B680C4A02FB03F37B617B693B6102E028
:10224C00054B3B6100BF3B6918461C37BD4680BC43
:10225C00704700BF0010024000127A00E82A000804
:10226C00F82A000800093D0080B485B000AF786002
:10227C000A4B1B680A4AA2FB03235B0A7A6802FB1F
:10228C0003F3FB6000BFFB685A1EFA60002BF9D108
:10229C0000BF00BF1437BD4680BC7047440100200E
:1022AC00D34D621080B582B000AF78607B68002B94
:1022BC0001D1012341E07B6893F83D30DBB2002B68
:1022CC0006D17B68002283F83C207868FFF75AF827
:1022DC007B68022283F83D207B681A687B68043394
:1022EC001946104600F056FA7B68012283F8462006
:1022FC007B68012283F83E207B68012283F83F2013
:10230C007B68012283F840207B68012283F84120FE
:10231C007B68012283F842207B68012283F84320EA
:10232C007B68012283F844207B68012283F84520D6
:10233C007B68012283F83D20002318460837BD46F0
:10234C0080BD000080B485B000AF78607B6893F8E6
:10235C003D30DBB2012B01D0012335E07B6802223A
:10236C0083F83D207B681B68DA687B681B6842F049
:10237C000102DA607B681B68164A934209D07B68BD
:10238C001B68B3F1804F04D07B681B68124A9342E0
:10239C0011D17B681B689B6803F00703FB60FB682B
:1023AC00062B10D07B681B681A687B681B6842F090
:1023BC0001021A6007E07B681B681A687B681B685F
:1023CC0042F001021A60002318461437BD4680BC47
:1023DC00704700BF002C01400004004080B584B061
:1023EC0000AF78607B681B68DB68FB607B681B68F0
:1023FC001B69BB60BB6803F00203002B20D0FB6899
:10240C0003F00203002B1BD07B681B686FF00202E9
:10241C001A617B6801221A777B681B689B6903F041
:10242C000303002B03D0786800F098F905E0786876
:10243C0000F08BF9786800F09AF97B6800221A7723
:10244C00BB6803F00403002B20D0FB6803F00403EB
:10245C00002B1BD07B681B686FF004021A617B6831
:10246C0002221A777B681B689B6903F44073002B6C
:10247C0003D0786800F072F905E0786800F065F92F
:10248C00786800F074F97B6800221A77BB6803F057
:10249C000803002B20D0FB6803F00803002B1BD093
:1024AC007B681B686FF008021A617B6804221A773C
:1024BC007B681B68DB6903F00303002B03D078688F
:1024CC0000F04CF905E0786800F03FF9786800F00E
:1024DC004EF97B6800221A77BB6803F01003002BBF
:1024EC0020D0FB6803F01003002B1BD07B681B680B
:1024FC006FF010021A617B6808221A777B681B68E0
:10250C00DB6903F44073002B03D0786800F026F9E4
:10251C0005E0786800F019F9786800F028F97B6814
:10252C0000221A77BB6803F00103002B0CD0FB6868
:10253C0003F00103002B07D07B681B686FF00102CE
:10254C001A617868FEF76EFEBB6803F08003002BFF
:10255C000CD0FB6803F08003002B07D07B681B6852
:10256C006FF080021A61786800F06FFABB6803F0B4
:10257C004003002B0CD0FB6803F04003002B07D06A
:10258C007B681B686FF040021A61786800F0F8F8FD
:10259C00BB6803F02003002B0CD0FB6803F0200376
:1025AC00002B07D07B681B686FF020021A617868DB
:1025BC0000F042FA00BF1037BD4680BD80B584B034
:1025CC0000AF786039600023FB737B6893F83C3074
:1025DC00012B01D10223B4E07B68012283F83C205B
:1025EC007B68022283F83D207B681B689B68BB607C
:1025FC00BB6823F07703BB60BB6823F47F43BB60ED
:10260C007B681B68BA689A603B681B68B3F5005F0F
:10261C003ED0B3F5005F00F28780B3F5805F00F029
:10262C008680B3F5805F7FD8702B1AD0702B7BD847
:10263C00602B50D0602B77D8502B3CD0502B73D8BC
:10264C00402B58D0402B6FD8302B64D0302B6BD80C
:10265C00202B60D0202B67D8002B5CD0102B5AD0AD
:10266C0062E07B6818683B6899683B685A683B680D
:10267C00DB6800F06AF97B681B689B68BB60BB6811
:10268C0043F07703BB607B681B68BA689A604FE0C5
:10269C007B6818683B6899683B685A683B68DB68DC
:1026AC0000F053F97B681B689A687B681B6842F4DE
:1026BC0080429A603CE07B6818683B6859683B68CC
:1026CC00DB681A4600F0CAF87B681B685021184674
:1026DC0000F021F92CE07B6818683B6859683B686E
:1026EC00DB681A4600F0E8F87B681B686021184626
:1026FC0000F011F91CE07B6818683B6859683B686E
:10270C00DB681A4600F0AAF87B681B684021184663
:10271C0000F001F90CE07B681A683B681B681946ED
:10272C00104600F0F8F803E00123FB7300E000BF53
:10273C007B68012283F83D207B68002283F83C20D3
:10274C00FB7B18461037BD4680BD80B483B000AF0C
:10275C00786000BF0C37BD4680BC704780B483B036
:10276C0000AF786000BF0C37BD4680BC704780B4AA
:10277C0083B000AF786000BF0C37BD4680BC70479B
:10278C0080B483B000AF786000BF0C37BD4680BC0E
:10279C007047000080B485B000AF786039607B680A
:1027AC001B68FB607B682B4A934207D07B68B3F1B4
:1027BC00804F03D07B68284A934208D1FB6823F0F2
:1027CC007003FB603B685B68FA681343FB607B68D3
:1027DC00204A934207D07B68B3F1804F03D07B68CB
:1027EC001D4A934208D1FB6823F44073FB603B689D
:1027FC00DB68FA681343FB60FB6823F080023B68DC
:10280C005B691343FB607B68FA681A603B689A68E3
:10281C007B68DA623B681A687B689A627B680D4A4F
:10282C00934203D13B681A697B681A637B68012267
:10283C005A617B681B6903F00103002B05D07B6890
:10284C001B6923F001027B681A6100BF1437BD4677
:10285C0080BC7047002C01400004004080B487B05D
:10286C0000AFF860B9607A60FB681B6A7B61FB683B
:10287C001B6A23F00102FB681A62FB689B693B61CF
:10288C003B6923F0F0033B617B681B013A691343FE
:10289C003B617B6923F00A037B617A69BB68134354
:1028AC007B61FB683A699A61FB687A691A6200BFBE
:1028BC001C37BD4680BC704780B487B000AFF86051
:1028CC00B9607A60FB681B6A7B61FB681B6A23F04A
:1028DC001002FB681A62FB689B693B613B6923F43D
:1028EC0070433B617B681B033A6913433B617B6913
:1028FC0023F0A0037B61BB681B017A6913437B61E6
:10290C00FB683A699A61FB687A691A6200BF1C37E6
:10291C00BD4680BC704780B485B000AF786039602C
:10292C007B689B68FB60FB6823F07003FB603A6874
:10293C00FB68134343F00703FB607B68FA689A60FB
:10294C0000BF1437BD4680BC704780B487B000AF61
:10295C00F860B9607A603B60FB689B687B617B695F
:10296C0023F47F437B613B681A027B681A43BB6884
:10297C0013437A6913437B61FB687A699A6000BFE1
:10298C001C37BD4680BC704780B485B000AF786002
:10299C0039607B6893F83C30012B01D1022341E074
:1029AC007B68012283F83C207B68022283F83D205F
:1029BC007B681B685B68FB607B681B689B68BB6003
:1029CC00FB6823F07003FB603B681B68FA681343D9
:1029DC00FB607B681B68FA685A607B681B68144A4A
:1029EC00934209D07B681B68B3F1804F04D07B689D
:1029FC001B68104A93420CD1BB6823F08003BB6068
:102A0C003B685B68BA681343BB607B681B68BA6839
:102A1C009A607B68012283F83D207B68002283F852
:102A2C003C20002318461437BD4680BC704700BFBD
:102A3C00002C01400004004080B483B000AF7860EB
:102A4C0000BF0C37BD4680BC704780B483B000AF6C
:102A5C00786000BF0C37BD4680BC704770B500264F
:102A6C000C4D0D4C641BA410A64209D100F022F8A9
:102A7C0000260A4D0A4C641BA410A64205D170BD59
:102A8C0055F8043B98470136EEE755F8043B984758
:102A9C000136F2E7FC2A0008FC2A0008FC2A000890
:102AAC00002B000803460244934200D1704703F800
:102ABC00011BF9E7F8B500BFF8BC08BC9E4670478F
:0C2ACC00F8B500BFF8BC08BC9E4670477F
:102AD80000000000000000000102030406070809C6
:102AE80002030405060708090A0B0C0D0E0F101047
:042AF80001020000D7
:042AFC00310100089C
:042B00000D010008BB
:102B040000000000000000000000000000000000C1
:102B140000000000000000000100000001000000AF
:102B2400000000000000000001000000010000009F
:102B3400010000000100000000000000000000008F
:102B4400010000000000000000000000010000007F
:102B54000000000000000000000000000000000071
:102B6400000000000100000001000000000000005F
:102B7400010000000000000000000000010000004F
:102B84000100000000000000000000000000000040
:102B9400010000000000000000000000010000002F
:102BA4000000000000000000000000000100000020
:102BB4000000000000000000000000000000000011
:102BC4000000000000000000000000000000000001
:102BD40001000000010000000100000001000000ED
:102BE40000000000000000000000000000000000E1
:102BF40000000000000000000000000000000000D1
:102C040000000000000000000000000001000000BF
:102C1400000000000000000000080140000801401E
:102C24000008014000100020004000000B000000DC
:102C34000D00000005000000020000000300000079
:102C44000200000000127A001000000001000000E1
:040000050800144992
:00000001FF
