:020000040800F2
:100000000028002065170008F5160008FB160008F8
:1000100001170008071700080D170008000000006E
:10002000000000000000000000000000131700089E
:100030001F170008000000002B17000837170008E2
:10004000AD170008AD170008AD170008AD17000880
:10005000AD170008AD170008AD170008AD17000870
:10006000AD170008AD170008AD170008AD17000860
:10007000AD170008AD170008AD170008AD17000850
:10008000AD170008AD170008AD170008AD17000840
:10009000AD170008AD170008AD170008AD17000830
:1000A000AD170008AD170008AD170008AD17000820
:1000B00045170008AD17000800000000AD17000844
:1000C000AD1700080000000000000000AD17000898
:1000D00000000000AD170008AD1700080000000088
:1000E000AD170008AD170008AD17000800000000AC
:1000F0000000000000000000000000000000000000
:0C01000000000000000000005FF808F1A3
:10010C0010B5054C237833B9044B13B10448AFF345
:10011C0000800123237010BD480100200000000066
:10012C00DC2D000808B5034B1BB103490348AFF3A2
:10013C00008008BD000000004C010020DC2D0008F0
:10014C0080B582B000AF78607B68002B6BDB7B687E
:10015C00092B68DC36497A681346DB009B1A9B0036
:10016C000B441B68DBB21A460121324801F01BFE1E
:10017C002F497A681346DB009B1A9B000B4404330F
:10018C001B68DBB21A4602212A4801F00CFE2849F2
:10019C007A681346DB009B1A9B000B4408331B68E0
:1001AC00DBB21A460421234801F0FDFD20497A6890
:1001BC001346DB009B1A9B000B440C331B68DBB211
:1001CC001A4608211B4801F0EEFD19497A681346BE
:1001DC00DB009B1A9B000B4410331B68DBB21A46E6
:1001EC001021144801F0DFFD11497A681346DB0039
:1001FC009B1A9B000B4414331B68DBB21A4620215C
:10020C000C4801F0D0FD0A497A681346DB009B1AB2
:10021C009B000B4418331B68DBB21A46402105487F
:10022C0001F0C1FD00E000BF0837BD4680BD00BF36
:10023C0000000020000C014080B582B000AF786057
:10024C007B68002B71DB7B68092B6EDC39497A6883
:10025C001346DB009B1A9B000B441B68DBB21A464F
:10026C008021354801F09FFD32497A681346DB0046
:10027C009B1A9B000B4404331B68DBB21A464FF4E9
:10028C0080712D4801F08FFD2A497A681346DB00F6
:10029C009B1A9B000B4408331B68DBB21A464FF4C5
:1002AC000071254801F07FFD22497A681346DB0076
:1002BC009B1A9B000B440C331B68DBB21A464FF4A1
:1002CC0080611D4801F06FFD1A497A681346DB0006
:1002DC009B1A9B000B4410331B68DBB21A464FF47D
:1002EC000061154801F05FFD12497A681346DB0086
:1002FC009B1A9B000B4414331B68DBB21A464FF459
:10030C0080510D4801F04FFD0A497A681346DB0015
:10031C009B1A9B000B4418331B68DBB21A464FF434
:10032C000051054801F03FFD00E000BF0837BD4615
:10033C0080BD00BF00000020000C014080B582B0E1
:10034C0000AF786039607B68002B03D07B68012B91
:10035C0010D01FE03868FFF7F3FE00224FF48071D5
:10036C000E4801F020FD01224FF400710B4801F002
:10037C001AFD0FE03868FFF7E3FE01224FF480719D
:10038C00064801F010FD00224FF40071034801F003
:10039C000AFD00BF00BF0837BD4680BD0008014004
:1003AC0080B582B000AF786039607B68022B03D0D7
:1003BC007B68032B10D01FE03868FFF73DFF00224D
:1003CC004FF480610E4801F0EEFC01224FF4006105
:1003DC000B4801F0E8FC0FE03868FFF72DFF012215
:1003EC004FF48061064801F0DEFC00224FF40061FE
:1003FC00034801F0D8FC00BF00BF0837BD4680BDE4
:10040C000008014080B483B000AF7860044A7B6878
:10041C00012142F8231000BF0C37BD4680BC704749
:10042C00BC01002080B483B000AF7860094A7B68BF
:10043C0052F82330012B06D1064A7B68002142F882
:10044C002310012300E0002318460C37BD4680BC66
:10045C00704700BFBC01002080B483B000AF78604F
:10046C00094A7B6852F82330012B06D1064A7B6877
:10047C00002142F82310012300E0002318460C371A
:10048C00BD4680BC704700BFD401002080B582B04F
:10049C0000AF00237B607EE0434A7B6852F8232048
:1004AC0042497B6841F82320414A7B6852F823205B
:1004BC003D497B6841F823203E4A7B6852F8232053
:1004CC003D497B6831F813301946104601F054FC55
:1004DC0003461946364A7B6842F82310344A7B6837
:1004EC0052F8232030497B6851F823309A424FD17F
:1004FC002D4A7B6852F823202C497B6851F8233015
:10050C009A4245D12D4A7B6852F8232027497B68B3
:10051C0051F823309A4216D0244A7B6852F8232093
:10052C0026497B6841F82320244A7B6852F8233003
:10053C00002B2DD1224A7B68642142F82310786865
:10054C00FFF760FF24E01D4A7B6852F82330002B34
:10055C001ED11B4A7B6852F82330002B18DD184A39
:10056C007B6852F823305A1E15497B6841F82320CA
:10057C00134A7B6852F82330002B09D1114A7B684F
:10058C00012142F823100E4A7B68642142F82310A3
:10059C007B6801337B607B68022B7FF77DAF00BFEC
:1005AC0000BF0837BD4680BDA4010020C801002053
:1005BC009801002018010020240100208C0100204B
:1005CC00B0010020D401002080B582B000AF0346FA
:1005DC00FB71FB79062B34D801A252F823F000BF33
:1005EC0009060008130600081D0600082706000867
:1005FC00310600083B060008450600080221134896
:10060C0001F0E9FB1DE00421104801F0E4FB18E0C7
:10061C0008210E4801F0DFFB13E010210B4801F01C
:10062C00DAFB0EE04021094801F0D5FB09E08021FE
:10063C00064801F0D0FB04E02021044801F0CBFB7C
:10064C0000BF00BF0837BD4680BD00BF0008014099
:10065C0080B500AF01F0A6F800F022F800F0A8F881
:10066C0000F05AF80D4801F0FBFF0D21042000F0BA
:10067C0079FF00F075FC00F011F900F019FA042074
:10068C0000F098FF0346002BF3D04FF4FA710420CE
:10069C0000F068FF0620FFF797FFEAE7E001002073
:1006AC0080B590B000AF07F118032822002118463E
:1006BC0002F086FB3B1D00221A605A609A60DA60D9
:1006CC001A610223BB610123BB621023FB6200236E
:1006DC007B6307F11803184601F096FB0346002BC9
:1006EC0001D000F0D5F80F237B600023BB60002302
:1006FC00FB6000233B6100237B613B1D00211846FE
:10070C0001F002FE0346002B01D000F0C1F800BF3F
:10071C004037BD4680BD000080B586B000AF07F104
:10072C00080300221A605A609A60DA603B46002285
:10073C001A605A601D4B4FF080421A601B4B41F6F9
:10074C003F725A60194B00229A60184B0922DA60EA
:10075C00164B00221A61154B00229A61134801F0C6
:10076C002FFF0346002B01D000F092F84FF480537A
:10077C00BB6007F1080319460C4802F0ADF80346BC
:10078C00002B01D000F084F800233B6000237B6039
:10079C003B461946054802F085FA0346002B01D06A
:1007AC0000F076F800BF1837BD4680BDE001002090
:1007BC0080B586B000AF07F1080300221A605A60BA
:1007CC009A60DA60294B9B69284A43F004039361D1
:1007DC00264B9B6903F004037B607B68234B9B696E
:1007EC00224A43F008039361204B9B6903F00803F2
:1007FC003B603B68002240F6FE711D4801F0D3FAC5
:10080C00002243F6FF711B4801F0CDFA40F6FE734F
:10081C00BB600123FB6000233B6102237B6107F17A
:10082C0008031946124801F02DF943F6FF73BB601B
:10083C000123FB6000233B6102237B6107F108036A
:10084C0019460C4801F01EF94FF4E043BB6000233D
:10085C00FB6001233B6107F108031946044801F0D2
:10086C0011F900BF1837BD4680BD00BF0010024013
:10087C0000080140000C014080B582B000AF7860E8
:10088C0000F0ACFEFFF702FE00BF0837BD4680BD8E
:10089C0080B400AF72B600BFFEE7000080B500AFB9
:1008AC007C4B1B68653B032B00F2E88001A252F8DD
:1008BC0023F000BFD108000845090008AF09000863
:1008CC00210A000800220221734801F06CFA002270
:1008DC008021714801F067FA012240F65C716E4884
:1008EC0001F061FA0120FFF79DFD0346002B07D0B4
:1008FC00684B66221A604FF4FA61012000F032FE58
:10090C000220FFF78FFD0346002B00F0B980614BEE
:10091C0001221A60614B1B68614A1360614B1B68B2
:10092C005F4A536000F048FDFA21002000F01AFEE7
:10093C005D4B00221A60A3E000220221564801F010
:10094C0032FA00224021544801F02DFA012240F6DF
:10095C009C71514801F027FA012000F02BFE034650
:10096C00002B02D04B4B67221A600220FFF75AFD76
:10097C000346002B00F08680464B02221A604B4B3C
:10098C001B68474A1360494B1B68454A536000F08B
:10099C0013FDFA21002000F0E5FD434B00221A6004
:1009AC0070E0002208213C4801F0FDF900221021E2
:1009BC00394801F0F8F9012240F6C671364801F0C9
:1009CC00F2F90120FFF72EFD0346002B07D0314B27
:1009DC0068221A604FF4FA61012000F0C3FD022076
:1009EC00FFF720FD0346002B4ED02A4B03221A6042
:1009FC002C4B1B682A4A1360284B1B68284A5360EF
:100A0C0000F0DAFCFA21002000F0ACFD264B0022AD
:100A1C001A6039E0002204211F4801F0C4F90022B9
:100A2C0010211D4801F0BFF9012240F6CA711A4885
:100A3C0001F0B9F9012000F0BDFD0346002B02D0F6
:100A4C00144B65221A600220FFF7ECFC0346002BC6
:100A5C001CD0104B04221A60144B1B68104A1360F4
:100A6C00124B1B680E4A536000F0A6FCFA210020C2
:100A7C0000F078FD0C4B00221A6007E000BF06E086
:100A8C0000BF04E000BF02E000BF00E000BF00BFF9
:100A9C0080BD00BF64010020000801402C01002033
:100AAC007C01002034010020840100203001002052
:100ABC0080B500AFAF4B1B68CB2B00F07181CB2BFB
:100ACC0000F3FB81C92B03D0CA2B00F0AA80F4E100
:100ADC00002000F06FFD0346002B31D0FA210020DE
:100AEC0000F040FD0221A44801F075F91021A24844
:100AFC0001F071F9A14B1A68A04B1B68A04951F881
:100B0C00233019461046FFF719FC9C4B1B68013328
:100B1C00002B03F00103B8BF5B42984A1360994B5A
:100B2C001A68984B1B68964951F8233019461046A1
:100B3C00FFF736FC934B1B68C3F10503914A136016
:100B4C000120FFF76FFC0346002B27D08E4B1B6850
:100B5C005A1C8E4B83FB02135911D317CB1A6421E9
:100B6C0001FB03F3D31A884A1360874B1B68884A2E
:100B7C0082FB03129210DB17D31A814A1360824B4B
:100B8C001968834B83FB01239A10CB17D21A134697
:100B9C009B0013445B00CA1A794B5A600220FFF782
:100BAC0041FC0346002B03D0774B1B68794A13603A
:100BBC000020FFF737FC0346002B00F080816D4BC3
:100BCC00CA221A60FA21002000F0CCFC0122DE219E
:100BDC00694801F0E8F8704B1B686B4A13606A4B6C
:100BEC001B686B4A82FB03129210DB17D31A644A00
:100BFC001360654B1968664B83FB01239A10CB1766
:100C0C00D21A13469B0013445B00CA1A5C4B5A6001
:100C1C005B4B00229A605A4B0322DA6000F0CCFB4B
:100C2C004DE1002000F0C6FC0346002B31D0FA2128
:100C3C00002000F097FC04214F4801F0CCF8402133
:100C4C004D4801F0C8F84D4B1A684C4B1B684C4989
:100C5C0051F8233019461046FFF770FB474B1B68C1
:100C6C000133002B03F00103B8BF5B42434A13600E
:100C7C00444B1A68434B1B68414951F823301946C1
:100C8C001046FFF78DFB3F4B1B68C3F105033D4A34
:100C9C0013600120FFF7C6FB0346002B27D03A4B0D
:100CAC001B685A1C394B83FB02135911D317CB1AEF
:100CBC00642101FB03F3D31A334A1360324B1B68D4
:100CCC00334A82FB03129210DB17D31A2C4A13609F
:100CDC002D4B19682E4B83FB01239A10CB17D21A7C
:100CEC0013469B0013445B00CA1A254B5A60022022
:100CFC00FFF798FB0346002B03D0234B1B68264AB7
:100D0C0013600020FFF78EFB0346002B00F0D98008
:100D1C00184BCB221A60FA21002000F023FC012290
:100D2C00DE21154801F03FF81C4B1B68164A136076
:100D3C00154B1B68164A82FB03129210DB17D31A51
:100D4C000F4A1360104B1968114B83FB01239A1047
:100D5C00CB17D21A13469B0013445B00CA1A084BDC
:100D6C005A60074B00229A60054B0422DA6000F0AF
:100D7C0023FBA6E06401002000080140680100206C
:100D8C006C01002038010020880100201F85EB51E8
:100D9C00676666662C0100203001002034010020BB
:100DAC00002000F007FC0346002B31D0FA21002074
:100DBC0000F0D8FB0821454801F00DF8802143488C
:100DCC0001F009F8424B1A68414B1B68414951F834
:100DDC00233019461046FFF7B1FA3D4B1B6801331F
:100DEC00002B03F00103B8BF5B42394A13603A4B46
:100DFC001A68394B1B68374951F82330194610468D
:100E0C00FFF7CEFA344B1B68C3F10503324A13606B
:100E1C000120FFF707FB0346002B27D02F4B1B6845
:100E2C005A1C2F4B83FB02135911D317CB1A642175
:100E3C0001FB03F3D31A294A1360284B1B68294A78
:100E4C0082FB03129210DB17D31A224A1360234B36
:100E5C001968244B83FB01239A10CB17D21A134623
:100E6C009B0013445B00CA1A1A4B5A600220FFF70E
:100E7C00D9FA0346002B03D0184B1B681A4A13608F
:100E8C000020FFF7CFFA0346002B1CD000F036F8F9
:100E9C00164B01221A60164B1B68164A1360124B34
:100EAC001B68144A536000F087FA134B00221A6037
:100EBC00FA21002000F056FB05E000BF04E000BF63
:100ECC0002E000BF00E000BF00BF80BD0008014091
:100EDC00680100206C0100203801002088010020EE
:100EEC001F85EB51676666663401002064010020A3
:100EFC002C0100207C0100208401002080B400AF74
:100F0C00144B1A68144B1B681A44144B1B689A42F6
:100F1C000CDA124B1A68104B19680E4B1B680B44F9
:100F2C00D21A0C4B1B6813440A4A1360094B1A68FB
:100F3C00094B1B681A44094B1B689A4206DD054B8A
:100F4C001A68054B1B681344044A136000BFBD4666
:100F5C0080BC704734010020300100202C0100209F
:100F6C0080B500AF844B1B68042B00F2018201A2F8
:100F7C0052F823F0950F0008B90F000899100008DB
:100F8C00B5110008951200087B4B01221A607B4BAF
:100F9C001B687B4A13607B4B1B68794A5360FA21B0
:100FAC00002000F0DFFA00F007FAEAE1002202214B
:100FBC00754800F0F8FE00228021734800F0F3FE23
:100FCC0001225C21704800F0EEFE00F043FA6D4BFC
:100FDC001B689A006D4B1B689A4211DC664B02220F
:100FEC001A606A4B00221A60694B1B68644A1360D2
:100FFC00674B1B68624A5360FA21002000F0B2FA7A
:10100C000220FFF729FA0346002B08D05A4B652221
:10101C001A60604B00221A605F4B02221A6000209B
:10102C00FFF700FA0346002B00F0A481524BC922B3
:10103C001A60524B1B68594A1360FA21002000F0C9
:10104C0091FA0122DE21504800F0ADFE4B4B1B689B
:10105C00534A82FB03129210DB17D31A514A1360C6
:10106C00464B19684E4B83FB01239A10CB17D21AAF
:10107C0013469B0013445B00CA1A4A4B5A60494BF7
:10108C0000229A60474B0222DA6073E100220221AF
:10109C003D4800F088FE002240213B4800F083FED2
:1010AC0001229C21384800F07EFE00F0D3F9384B29
:1010BC001B689A00354B1B689A4211DC2E4B03229D
:1010CC001A60324B00221A602E4B1B682C4A13609C
:1010DC002A4B1B682A4A5360FA21002000F042FA7E
:1010EC000220FFF7B9F90346002B0DD0224B6622E4
:1010FC001A604FF4FA61012000F034FA254B0022FB
:10110C001A60254B02221A600020FFF78BF9034668
:10111C00002B00F03181184BC9221A60174B1B6849
:10112C001E4A1360FA21002000F01CFA0122DE2175
:10113C00154800F038FE114B1B68194A82FB03124C
:10114C009210DB17D31A174A13600C4B1968144B07
:10115C0083FB01239A10CB17D21A13469B0013441E
:10116C005B00CA1A0F4B5A600E4B00229A600D4B53
:10117C000222DA6000E100BF640100202C01002093
:10118C007C01002034010020000801408401002073
:10119C003001002068010020380100208801002067
:1011AC00676666666C01002000220821764800F014
:1011BC00FAFD00221021744800F0F5FD0122C62131
:1011CC00714800F0F0FD00F045F9704B1B689A0077
:1011DC006F4B1B689A4211DC6E4B04221A606C4BED
:1011EC0000221A606C4B1B686C4A13606A4B1B68BC
:1011FC006A4A5360FA21002000F0B4F90220FFF78C
:10120C002BF90346002B08D0624B67221A60644B03
:10121C0000221A60634B02221A600020FFF702F9C9
:10122C000346002B00F0AA805A4BC9221A605E4B71
:10123C001B685E4A1360FA21002000F093F901222A
:10124C00DE21514800F0AFFD574B1B68584A82FB1A
:10125C0003129210DB17D31A564A1360524B1968BB
:10126C00534B83FB01239A10CB17D21A13469B00C6
:10127C0013445B00CA1A4F4B5A604E4B00229A60C3
:10128C004C4B0222DA6079E0002204213E4800F047
:10129C008AFD002210213C4800F085FD0122CA2164
:1012AC00394800F080FD00F0D5F83B4B1B689A00E4
:1012BC00374B1B689A4211DC364B01221A60344BB7
:1012CC0000221A60384B1B68344A13602F4B1B6882
:1012DC00324A5360FA21002000F044F90220FFF753
:1012EC00BBF80346002B0DD02A4B68221A604FF432
:1012FC00FA61012000F036F9294B00221A60294BC3
:10130C0002221A600020FFF78DF80346002B37D01D
:10131C00204BC9221A60244B1B68244A1360FA2103
:10132C00002000F01FF90122DE21174800F03BFDE0
:10133C001D4B1B681E4A82FB03129210DB17D31A3B
:10134C001C4A1360184B1968194B83FB01239A1024
:10135C00CB17D21A13469B0013445B00CA1A154BC9
:10136C005A60144B00229A60124B0222DA6007E09A
:10137C0000BF06E000BF04E000BF02E000BF00E0D9
:10138C0000BF00BF80BD00BF000801403401002039
:10139C008401002064010020300100207C01002029
:1013AC0068010020380100202C0100208801002059
:1013BC00676666666C01002080B500AF204B00228A
:1013CC001A60204B02221A601F4B1B681F4A82FBBB
:1013DC0003129210DB17D31A1D4A13601A4B5B6869
:1013EC001A4A82FB03129210DB17D31A184A936025
:1013FC00134B1A68124B1B68154951F823301946C8
:10140C001046FEF79BFF0E4B1B680133002B03F0BD
:10141C000103B8BF5B420A4A13600A4B1A68094BB6
:10142C001B680B4951F8233019461046FEF7B8FFDC
:10143C00044B1B68C3F10503024A136000BF80BD57
:10144C0068010020380100207C0100206766666678
:10145C006C01002080B500AF002000F0ABF8034613
:10146C00002B70D0FA21002000F07CF8374B1B6861
:10147C000133364A1360354B1B6803F00303002B12
:10148C0009D1334B1B68013B314A1360304B5B680D
:10149C00013B2F4A53602E4B1B682E4A82FB0312D2
:1014AC009210DB17D31A2C4A1360294B1968294B5D
:1014BC0083FB01239A10CB17D21A13469B001344BB
:1014CC005B00CA1A244B5A60214B5B68214A82FB91
:1014DC0003129210DB17D31A1F4A93601C4B5968E6
:1014EC001C4B83FB01239A10CB17D21A13469B007B
:1014FC0013445B00CA1A184BDA60184B1A68174B66
:10150C001B68154951F8233019461046FEF716FF93
:10151C00124B1B680133002B03F00103B8BF5B4275
:10152C000E4A13600E4B1A680D4B1B680A4951F892
:10153C00233019461046FEF733FF094B1B68C3F1E5
:10154C000503074A136000BF80BD00BF8401002063
:10155C007C010020676666666C0100206801002033
:10156C003801002080B483B000AF786039607B68AC
:10157C00002B13DB7B68132B10DC0B4A7B680021E0
:10158C0042F823103B68094A82FB03129210DB17C6
:10159C00D21A07497B6841F8232000E000BF0C37C2
:1015AC00BD4680BC704700BF780200206766666647
:1015BC002802002080B483B000AF7860064A7B68B4
:1015CC0052F82330012B01D1012300E000231846EF
:1015DC000C37BD4680BC70477802002080B483B0C5
:1015EC0000AF00237B601CE0124A7B6852F823306A
:1015FC00002B13DD0F4A7B6852F823305A1E0D491D
:10160C007B6841F823200B4A7B6852F82330002B6F
:10161C0004DC094A7B68012142F823107B68013302
:10162C007B607B68132BDFDD00BF00BF0C37BD4632
:10163C0080BC7047280200207802002080B485B05E
:10164C0000AF154B9B69144A43F001039361124B95
:10165C009B6903F00103BB60BB680F4BDB690E4A4F
:10166C0043F08053D3610C4BDB6903F080537B60F8
:10167C007B680A4B5B68FB60FB6823F0E063FB60F4
:10168C00FB6843F08063FB60044AFB68536000BF57
:10169C001437BD4680BC704700100240000001406A
:1016AC0080B584B000AF78607B681B68B3F1804F65
:1016BC0013D10C4BDB690B4A43F00103D361094B8B
:1016CC00DB6903F00103FB60FB68002200211C2096
:1016DC0000F0A1F91C2000F0BAF900BF1037BD468C
:1016EC0080BD00BF0010024080B400AFFEE780B4A4
:1016FC0000AFFEE780B400AFFEE780B400AFFEE7BA
:10170C0080B400AFFEE780B400AF00BFBD4680BC24
:10171C00704780B400AF00BFBD4680BC704780B43A
:10172C0000AF00BFBD4680BC704780B500AF00F075
:10173C007FF800BF80BD000080B500AF024800F00C
:10174C00DBFF00BF80BD00BFE001002080B400AF14
:10175C0000BFBD4680BC7047FFF7F8FF0B480C4933
:10176C000C4A002302E0D458C4500433C4188C42F1
:10177C00F9D3094A094C002301E013600432A24258
:10178C00FBD301F0F9FAFEF763FF7047000000206D
:10179C0048010020202E000848010020CC02002027
:1017AC00FEE7000080B500AF084B1B68074A43F00A
:1017BC0010031360032000F023F90F2000F008F849
:1017CC00FFF73CFF0023184680BD00BF00200240FD
:1017DC0080B582B000AF7860124B1A68124B1B7840
:1017EC0019464FF47A73B3FBF1F3B2FBF3F31846DB
:1017FC0000F03BF90346002B01D001230EE07B687F
:10180C000F2B0AD8002279684FF0FF3000F003F953
:10181C00064A7B681360002300E001231846083752
:10182C00BD4680BD3C010020440100204001002049
:10183C0080B400AF054B1B781A46054B1B6813444C
:10184C00034A136000BFBD4680BC704744010020B2
:10185C00C802002080B400AF024B1B681846BD467E
:10186C0080BC7047C802002080B485B000AF78609F
:10187C007B6803F00703FB600C4BDB68BB60BA684A
:10188C004FF6FF031340BB60FB681A02BB6813439F
:10189C0043F0BF6343F40033BB60044ABB68D360BE
:1018AC0000BF1437BD4680BC704700BF00ED00E0A0
:1018BC0080B400AF044BDB681B0A03F00703184627
:1018CC00BD4680BC704700BF00ED00E080B483B023
:1018DC0000AF0346FB7197F90730002B0BDBFB794C
:1018EC0003F01F02064997F907305B09012000FA43
:1018FC0002F241F8232000BF0C37BD4680BC704774
:10190C0000E100E080B483B000AF03463960FB71A6
:10191C0097F90730002B0ADB3B68DAB20C4997F9D0
:10192C0007301201D2B20B4483F800230AE03B6863
:10193C00DAB20849FB7903F00F03043B1201D2B26F
:10194C000B441A7600BF0C37BD4680BC704700BFF5
:10195C0000E100E000ED00E080B489B000AFF86079
:10196C00B9607A60FB6803F00703FB61FB69C3F1A4
:10197C000703042B28BF0423BB61FB690433062B2C
:10198C0002D9FB69033B00E000237B614FF0FF327F
:10199C00BB6902FA03F3DA43BB681A407B699A40CD
:1019AC004FF0FF317B6901FA03F3D9437B680B409D
:1019BC00134318462437BD4680BC704780B582B0AF
:1019CC0000AF78607B68013BB3F1807F01D30123CA
:1019DC000FE00A4A7B68013B53600F214FF0FF3048
:1019EC00FFF790FF054B00229A60044B07221A6008
:1019FC00002318460837BD4680BD00BF10E000E04C
:101A0C0080B582B000AF78607868FFF72DFF00BF1B
:101A1C000837BD4680BD80B586B000AF0346B960BF
:101A2C007A60FB7300237B61FFF742FF78617A6871
:101A3C00B9687869FFF790FF024697F90F301146A5
:101A4C001846FFF75FFF00BF1837BD4680BD80B555
:101A5C0082B000AF0346FB7197F907301846FFF7C9
:101A6C0035FF00BF0837BD4680BD80B582B000AFE2
:101A7C0078607868FFF7A2FF034618460837BD4622
:101A8C0080BD000080B48BB000AF7860396000235B
:101A9C007B6200233B6248E101227B6A02FA03F37A
:101AAC00FB613B681B68FA691340BB61BA69FB694F
:101ABC009A4240F037813B685B68A34A93425ED000
:101ACC00A14A934275D8A14A934258D09F4A934257
:101ADC006FD89F4A934252D09D4A934269D89D4AEF
:101AEC0093424CD09B4A934263D89B4A934246D034
:101AFC00994A93425DD8122B2AD8122B59D801A29D
:101B0C0052F823F08B1B0008651B0008771B00089C
:101B1C00B91B0008BF1B0008BF1B0008BF1B000837
:101B2C00BF1B0008BF1B0008BF1B0008BF1B000821
:101B3C00BF1B0008BF1B0008BF1B0008BF1B000811
:101B4C00BF1B0008BF1B00086D1B0008811B000891
:101B5C00824A934213D02CE03B68DB683B6229E05D
:101B6C003B68DB6804333B6224E03B68DB6808338A
:101B7C003B621FE03B68DB680C333B621AE03B685E
:101B8C009B68002B02D104233B6213E03B689B68EB
:101B9C00012B05D108233B627B68FA691A6109E0C5
:101BAC0008233B627B68FA695A6103E000233B62BD
:101BBC0000E000BFBB69FF2B01D87B6801E07B68AC
:101BCC0004337B61BB69FF2B02D87B6A9B0002E06C
:101BDC007B6A083B9B003B617B691A680F213B6960
:101BEC0001FA03F3DB431A40396A3B6901FA03F348
:101BFC001A437B691A603B685B6803F08053002BC7
:101C0C0000F09080564B9B69554A43F00103936159
:101C1C00534B9B6903F00103BB60BB68514A7B6A61
:101C2C009B08023352F82330FB607B6A03F00303FA
:101C3C009B000F2202FA03F3DB43FA681340FB60AC
:101C4C007B68494A93420DD07B68484A934207D03F
:101C5C007B68474A934201D1022304E0032302E04C
:101C6C00012300E000237A6A02F003029200934001
:101C7C00FA681343FB603B497B6A9B080233FA68A2
:101C8C0041F823203B685B6803F48013002B06D0DB
:101C9C00384B9A683749BB6913438B6006E0354B68
:101CAC009A68BB69DB43334913408B603B685B68C4
:101CBC0003F40013002B06D02E4BDA682D49BB69B8
:101CCC001343CB6006E02B4BDA68BB69DB43294935
:101CDC001340CB603B685B6803F40033002B06D0E9
:101CEC00244B5A682349BB6913434B6006E0214BD4
:101CFC005A68BB69DB431F4913404B603B685B6808
:101D0C0003F48033002B06D01A4B1A681949BB69AF
:101D1C0013430B6006E0174B1A68BB69DB4315498C
:101D2C0013400B607B6A01337B623B681A687B6AE9
:101D3C0022FA03F3002B7FF4AFAE00BF00BF2C37A9
:101D4C00BD4680BC704700BF00003210000031104F
:101D5C0000002210000021100000121000001110D1
:101D6C00001002400000014000080140000C01403E
:101D7C00001001400004014080B485B000AF7860D1
:101D8C000B467B807B689A687B881340002B02D0C3
:101D9C000123FB7301E00023FB73FB7B1846143714
:101DAC00BD4680BC704780B483B000AF78600B46F2
:101DBC007B8013467B707B78002B03D07A887B6802
:101DCC001A6103E07B881A047B681A6100BF0C3728
:101DDC00BD4680BC704780B485B000AF78600B46C0
:101DEC007B807B68DB68FB607A88FB6813401A0495
:101DFC00FB68D9437B880B401A437B681A6100BF90
:101E0C001437BD4680BC704780B586B000AF786093
:101E1C007B68002B01D101236CE27B681B6803F00B
:101E2C000103002B00F08780924B5B6803F00C03DE
:101E3C00042B0CD08F4B5B6803F00C03082B12D1D6
:101E4C008C4B5B6803F48033B3F5803F0BD1894B2B
:101E5C001B6803F40033002B6CD07B685B68002B91
:101E6C0068D1012346E27B685B68B3F5803F06D1FD
:101E7C00804B1B687F4A43F4803313602EE07B68F1
:101E8C005B68002B0CD17B4B1B687A4A23F48033A4
:101E9C001360784B1B68774A23F4802313601DE092
:101EAC007B685B68B3F5A02F0CD1724B1B68714A31
:101EBC0043F4802313606F4B1B686E4A43F48033EA
:101ECC0013600BE06B4B1B686A4A23F4803313607E
:101EDC00684B1B68674A23F4802313607B685B683C
:101EEC00002B13D0FFF7B6FC386108E0FFF7B2FC0B
:101EFC0002463B69D31A642B01D90323FAE15D4BEB
:101F0C001B6803F40033002BF0D014E0FFF7A2FCA5
:101F1C00386108E0FFF79EFC02463B69D31A642B3C
:101F2C0001D90323E6E1534B1B6803F40033002B68
:101F3C00F0D100E000BF7B681B6803F00203002BAC
:101F4C0063D04C4B5B6803F00C03002B0BD0494B5C
:101F5C005B6803F00C03082B1CD1464B5B6803F445
:101F6C008033002B16D1434B1B6803F00203002B6C
:101F7C0005D07B681B69012B01D00123BAE13D4BD5
:101F8C001B6823F0F8027B685B69DB00394913435B
:101F9C000B603AE07B681B69002B20D0364B01228A
:101FAC001A60FFF757FC386108E0FFF753FC024654
:101FBC003B69D31A022B01D903239BE12D4B1B68E0
:101FCC0003F00203002BF0D02A4B1B6823F0F8021D
:101FDC007B685B69DB00274913430B6015E0264BDC
:101FEC0000221A60FFF736FC386108E0FFF732FC7C
:101FFC0002463B69D31A022B01D903237AE11D4B0C
:10200C001B6803F00203002BF0D17B681B6803F004
:10201C000803002B3AD07B689B69002B19D0174B17
:10202C0001221A60FFF716FC386108E0FFF712FC7A
:10203C0002463B69D31A022B01D903235AE10D4BFB
:10204C005B6A03F00203002BF0D0012000F09AFA37
:10205C001CE00A4B00221A60FFF7FCFB38610FE012
:10206C00FFF7F8FB02463B69D31A022B08D903236E
:10207C0040E100BF00100240000042428004424296
:10208C009E4B5B6A03F00203002BE9D17B681B6853
:10209C0003F00403002B00F0A6800023FB75974B84
:1020AC00DB6903F08053002B0DD1944BDB69934A11
:1020BC0043F08053D361914BDB6903F08053BB60D9
:1020CC00BB680123FB758E4B1B6803F48073002BDC
:1020DC0018D18B4B1B688A4A43F480731360FFF74B
:1020EC00B9FB386108E0FFF7B5FB02463B69D31A30
:1020FC00642B01D90323FDE0814B1B6803F480732F
:10210C00002BF0D07B68DB68012B06D17B4B1B6A64
:10211C007A4A43F0010313622DE07B68DB68002BE5
:10212C000CD1764B1B6A754A23F001031362734B77
:10213C001B6A724A23F0040313621CE07B68DB68A1
:10214C00052B0CD16D4B1B6A6C4A43F004031362D4
:10215C006A4B1B6A694A43F0010313620BE0674B3D
:10216C001B6A664A23F001031362644B1B6A634AC1
:10217C0023F0040313627B68DB68002B15D0FFF798
:10218C0069FB38610AE0FFF765FB02463B69D31A2D
:10219C0041F28832934201D90323ABE0574B1B6ABF
:1021AC0003F00203002BEED014E0FFF753FB386171
:1021BC000AE0FFF74FFB02463B69D31A41F2883223
:1021CC00934201D9032395E04C4B1B6A03F00203A5
:1021DC00002BEED1FB7D012B05D1484BDB69474A27
:1021EC0023F08053D3617B68DB69002B00F0818086
:1021FC00424B5B6803F00C03082B61D07B68DB69F6
:10220C00022B46D13F4B00221A60FFF723FB3861AB
:10221C0008E0FFF71FFB02463B69D31A022B01D9DA
:10222C00032367E0354B1B6803F00073002BF0D1E0
:10223C007B681B6AB3F5803F08D1304B5B6823F495
:10224C0000327B689B682D4913434B602B4B5B68BA
:10225C0023F474127B68196A7B685B6A0B43274909
:10226C0013434B60274B01221A60FFF7F3FA3861D6
:10227C0008E0FFF7EFFA02463B69D31A022B01D9AB
:10228C00032337E01D4B1B6803F00073002BF0D0C9
:10229C002FE01C4B00221A60FFF7DCFA386108E0D3
:1022AC00FFF7D8FA02463B69D31A022B01D9032354
:1022BC0020E0124B1B6803F00073002BF0D118E0E8
:1022CC007B68DB69012B01D1012313E00B4B5B68AD
:1022DC00FB60FB6803F480327B681B6A9A4206D170
:1022EC00FB6803F470127B685B6A9A4201D001238D
:1022FC0000E0002318461837BD4680BD0010024090
:10230C00007000406000424280B584B000AF78603D
:10231C0039607B68002B01D10123D0E06A4B1B682C
:10232C0003F007033A689A4210D9674B1B6823F0F5
:10233C00070265493B6813430B60634B1B6803F052
:10234C0007033A689A4201D00123B8E07B681B6806
:10235C0003F00203002B20D07B681B6803F00403FE
:10236C00002B05D0594B5B68584A43F4E06353602B
:10237C007B681B6803F00803002B05D0534B5B688C
:10238C00524A43F460535360504B5B6823F0F002A5
:10239C007B689B684D4913434B607B681B6803F05B
:1023AC000103002B40D07B685B68012B07D1474BA6
:1023BC001B6803F40033002B15D101237FE07B68ED
:1023CC005B68022B07D1414B1B6803F00073002B99
:1023DC0009D1012373E03D4B1B6803F00203002B72
:1023EC0001D101236BE0394B5B6823F003027B685E
:1023FC005B68364913434B60FFF72CFAF8600AE030
:10240C00FFF728FA0246FB68D31A41F2883293424E
:10241C0001D9032353E02D4B5B6803F00C027B685E
:10242C005B689B009A42EBD1274B1B6803F00703B8
:10243C003A689A4210D2244B1B6823F007022249B7
:10244C003B6813430B60204B1B6803F007033A688F
:10245C009A4201D0012332E07B681B6803F004032D
:10246C00002B08D0194B5B6823F4E0627B68DB68B7
:10247C00164913434B607B681B6803F00803002B61
:10248C0009D0124B5B6823F460527B681B69DB003C
:10249C000E4913434B6000F021F802460B4B5B686E
:1024AC001B0903F00F030A49CB5C22FA03F3094A18
:1024BC001360094B1B681846FFF78AF9002318466E
:1024CC001037BD4680BD00BF002002400010024006
:1024DC00F42D00083C0100204001002080B487B09E
:1024EC0000AF0023FB600023BB6000237B61002353
:1024FC007B6000233B611E4B5B68FB60FB6803F059
:10250C000C03042B02D0082B03D027E0194B3B61A2
:10251C0027E0FB689B0C03F00F03174AD35C7B602E
:10252C00FB6803F48033002B10D0114B5B685B0C01
:10253C0003F00103114AD35CBB607B680D4A02FBBC
:10254C0003F2BB68B2FBF3F37B6104E07B680C4ADB
:10255C0002FB03F37B617B693B6102E0054B3B6152
:10256C0000BF3B6918461C37BD4680BC704700BF96
:10257C000010024000127A00042E0008142E0008ED
:10258C0000093D0080B485B000AF78600A4B1B6831
:10259C000A4AA2FB03235B0A7A6802FB03F3FB6083
:1025AC0000BFFB685A1EFA60002BF9D100BF00BFB8
:1025BC001437BD4680BC70473C010020D34D6210DF
:1025CC0080B582B000AF78607B68002B01D101230D
:1025DC0041E07B6893F83D30DBB2002B06D17B6881
:1025EC00002283F83C207868FFF75AF87B680222B7
:1025FC0083F83D207B681A687B68043319461046C3
:10260C0000F056FA7B68012283F846207B68012291
:10261C0083F83E207B68012283F83F207B680122EF
:10262C0083F840207B68012283F841207B680122DB
:10263C0083F842207B68012283F843207B680122C7
:10264C0083F844207B68012283F845207B680122B3
:10265C0083F83D20002318460837BD4680BD000096
:10266C0080B485B000AF78607B6893F83D30DBB206
:10267C00012B01D0012335E07B68022283F83D2039
:10268C007B681B68DA687B681B6842F00102DA60C1
:10269C007B681B68164A934209D07B681B68B3F1B0
:1026AC00804F04D07B681B68124A934211D17B681F
:1026BC001B689B6803F00703FB60FB68062B10D0BC
:1026CC007B681B681A687B681B6842F001021A6001
:1026DC0007E07B681B681A687B681B6842F0010284
:1026EC001A60002318461437BD4680BC704700BFE3
:1026FC00002C01400004004080B584B000AF78602D
:10270C007B681B68DB68FB607B681B681B69BB60B4
:10271C00BB6803F00203002B20D0FB6803F002031C
:10272C00002B1BD07B681B686FF002021A617B6860
:10273C0001221A777B681B689B6903F00303002B4B
:10274C0003D0786800F098F905E0786800F08BF910
:10275C00786800F09AF97B6800221A77BB6803F05E
:10276C000403002B20D0FB6803F00403002B1BD0C8
:10277C007B681B686FF004021A617B6802221A776F
:10278C007B681B689B6903F44073002B03D078684B
:10279C0000F072F905E0786800F065F9786800F0EF
:1027AC0074F97B6800221A77BB6803F00803002BCE
:1027BC0020D0FB6803F00803002B1BD07B681B6840
:1027CC006FF008021A617B6804221A777B681B6819
:1027DC00DB6903F00303002B03D0786800F04CF99D
:1027EC0005E0786800F03FF9786800F04EF97B68F6
:1027FC0000221A77BB6803F01003002B20D0FB6873
:10280C0003F01003002B1BD07B681B686FF01002C9
:10281C001A617B6808221A777B681B68DB6903F4F2
:10282C004073002B03D0786800F026F905E0786837
:10283C0000F019F9786800F028F97B6800221A7703
:10284C00BB6803F00103002B0CD0FB6803F0010301
:10285C00002B07D07B681B686FF001021A61786847
:10286C00FEF70AF8BB6803F08003002B0CD0FB6862
:10287C0003F08003002B07D07B681B686FF080028D
:10288C001A61786800F06FFABB6803F04003002B04
:10289C000CD0FB6803F04003002B07D07B681B684F
:1028AC006FF040021A61786800F0F8F8BB6803F02A
:1028BC002003002B0CD0FB6803F02003002B07D067
:1028CC007B681B686FF020021A61786800F042FA8E
:1028DC0000BF1037BD4680BD80B584B000AF7860B6
:1028EC0039600023FB737B6893F83C30012B01D1DA
:1028FC000223B4E07B68012283F83C207B6802222F
:10290C0083F83D207B681B689B68BB60BB6823F029
:10291C007703BB60BB6823F47F43BB607B681B6899
:10292C00BA689A603B681B68B3F5005F3ED0B3F59C
:10293C00005F00F28780B3F5805F00F08680B3F50E
:10294C00805F7FD8702B1AD0702B7BD8602B50D027
:10295C00602B77D8502B3CD0502B73D8402B58D0B1
:10296C00402B6FD8302B64D0302B6BD8202B60D001
:10297C00202B67D8002B5CD0102B5AD062E07B68E0
:10298C0018683B6899683B685A683B68DB6800F0DC
:10299C006AF97B681B689B68BB60BB6843F0770374
:1029AC00BB607B681B68BA689A604FE07B681868EC
:1029BC003B6899683B685A683B68DB6800F053F9E0
:1029CC007B681B689A687B681B6842F480429A603B
:1029DC003CE07B6818683B6859683B68DB681A46C2
:1029EC0000F0CAF87B681B685021184600F021F9EA
:1029FC002CE07B6818683B6859683B68DB681A46B2
:102A0C0000F0E8F87B681B686021184600F011F9AB
:102A1C001CE07B6818683B6859683B68DB681A46A1
:102A2C0000F0AAF87B681B684021184600F001F9F9
:102A3C000CE07B681A683B681B681946104600F06E
:102A4C00F8F803E00123FB7300E000BF7B68012270
:102A5C0083F83D207B68002283F83C20FB7B1846E2
:102A6C001037BD4680BD80B483B000AF786000BF26
:102A7C000C37BD4680BC704780B483B000AF786023
:102A8C0000BF0C37BD4680BC704780B483B000AF2C
:102A9C00786000BF0C37BD4680BC704780B483B0F3
:102AAC0000AF786000BF0C37BD4680BC704700009B
:102ABC0080B485B000AF786039607B681B68FB60C0
:102ACC007B682B4A934207D07B68B3F1804F03D0CD
:102ADC007B68284A934208D1FB6823F07003FB60A3
:102AEC003B685B68FA681343FB607B68204A93423F
:102AFC0007D07B68B3F1804F03D07B681D4A9342AB
:102B0C0008D1FB6823F44073FB603B68DB68FA6810
:102B1C001343FB60FB6823F080023B685B69134343
:102B2C00FB607B68FA681A603B689A687B68DA62BB
:102B3C003B681A687B689A627B680D4A934203D1A2
:102B4C003B681A697B681A637B6801225A617B684F
:102B5C001B6903F00103002B05D07B681B6923F074
:102B6C0001027B681A6100BF1437BD4680BC7047F8
:102B7C00002C01400004004080B487B000AFF86026
:102B8C00B9607A60FB681B6A7B61FB681B6A23F087
:102B9C000102FB681A62FB689B693B613B6923F08D
:102BAC00F0033B617B681B013A6913433B617B6912
:102BBC0023F00A037B617A69BB6813437B61FB6872
:102BCC003A699A61FB687A691A6200BF1C37BD4684
:102BDC0080BC704780B487B000AFF860B9607A6091
:102BEC00FB681B6A7B61FB681B6A23F01002FB68A5
:102BFC001A62FB689B693B613B6923F470433B6140
:102C0C007B681B033A6913433B617B6923F0A00388
:102C1C007B61BB681B017A6913437B61FB683A6972
:102C2C009A61FB687A691A6200BF1C37BD4680BC8A
:102C3C00704780B485B000AF786039607B689B6862
:102C4C00FB60FB6823F07003FB603A68FB6813437E
:102C5C0043F00703FB607B68FA689A6000BF143787
:102C6C00BD4680BC704780B487B000AFF860B960D7
:102C7C007A603B60FB689B687B617B6923F47F43D4
:102C8C007B613B681A027B681A43BB6813437A6901
:102C9C0013437B61FB687A699A6000BF1C37BD46A1
:102CAC0080BC704780B485B000AF786039607B68B9
:102CBC0093F83C30012B01D1022341E07B680122C7
:102CCC0083F83C207B68022283F83D207B681B68DC
:102CDC005B68FB607B681B689B68BB60FB6823F0D0
:102CEC007003FB603B681B68FA681343FB607B68EE
:102CFC001B68FA685A607B681B68144A934209D0B7
:102D0C007B681B68B3F1804F04D07B681B68104A4A
:102D1C0093420CD1BB6823F08003BB603B685B68BB
:102D2C00BA681343BB607B681B68BA689A607B689F
:102D3C00012283F83D207B68002283F83C2000238D
:102D4C0018461437BD4680BC704700BF002C0140AC
:102D5C000004004080B483B000AF786000BF0C3733
:102D6C00BD4680BC704780B483B000AF786000BFB4
:102D7C000C37BD4680BC704770B500260C4D0D4C11
:102D8C00641BA410A64209D100F022F800260A4DBB
:102D9C000A4C641BA410A64205D170BD55F8043B27
:102DAC0098470136EEE755F8043B98470136F2E7B1
:102DBC00182E0008182E0008182E00081C2E0008CB
:102DCC0003460244934200D1704703F8011BF9E714
:102DDC00F8B500BFF8BC08BC9E467047F8B500BFFC
:082DEC00F8BC08BC9E467047CC
:102DF40000000000000000000102030406070809A7
:102E040002030405060708090A0B0C0D0E0F101027
:042E140001020000B7
:042E1800310100087C
:042E1C000D0100089C
:102E200000000000000000000000000000000000A2
:102E30000000000000000000010000000100000090
:102E40000000000000000000010000000100000080
:102E50000100000001000000000000000000000070
:102E60000100000000000000000000000100000060
:102E70000000000000000000000000000000000052
:102E80000000000001000000010000000000000040
:102E90000100000000000000000000000100000030
:102EA0000100000000000000000000000000000021
:102EB0000100000000000000000000000100000010
:102EC0000000000000000000000000000100000001
:102ED00000000000000000000000000000000000F2
:102EE00000000000000000000000000000000000E2
:102EF00001000000010000000100000001000000CE
:102F000000000000000000000000000000000000C1
:102F100000000000000000000000000000000000B1
:102F200000000000000000000000000001000000A0
:102F300000000000000000000008014000080140FF
:102F400000080140001000200040000005000000C3
:102F500002000000030000000200000000127A00DE
:082F6000100000000100000058
:040000050800176573
:00000001FF
